:020000040000fa
:080000000001040000000000f3
:020000040000fa
:04000800f6010000fd
:020000040000fa
:04000c00f6010000f9
:020000040000fa
:04001000f6010000f5
:020000040000fa
:04001400f6010000f1
:020000040000fa
:04001800f6010000ed
:020000040000fa
:04001c00f6010000e9
:020000040000fa
:04002000f6010000e5
:020000040000fa
:04002400f6010000e1
:020000040000fa
:04002800f6010000dd
:020000040000fa
:04002c00f6010000d9
:020000040000fa
:04003000f6010000d5
:020000040000fa
:04003400f6010000d1
:020000040000fa
:04003800f6010000cd
:020000040000fa
:04003c00f6010000c9
:020000040000fa
:04004000f6010000c5
:020000040000fa
:04004400f6010000c1
:020000040000fa
:04004800f6010000bd
:020000040000fa
:04004c00f6010000b9
:020000040000fa
:04005000f6010000b5
:020000040000fa
:04005400f6010000b1
:020000040000fa
:04005800f6010000ad
:020000040000fa
:04005c00f6010000a9
:020000040000fa
:04006000f6010000a5
:020000040000fa
:04006400f6010000a1
:020000040000fa
:04006800f60100009d
:020000040000fa
:04006c00f601000099
:020000040000fa
:04007000f601000095
:020000040000fa
:04007400f601000091
:020000040000fa
:04007800f60100008d
:020000040000fa
:04007c00f601000089
:020000040000fa
:04008000f601000085
:020000040000fa
:04008400f601000081
:020000040000fa
:04008800c8010000ab
:020000040000fa
:04008c00f601000079
:020000040000fa
:04009000f601000075
:020000040000fa
:04009400f601000071
:020000040000fa
:04009800f60100006d
:020000040000fa
:04009c00f601000069
:020000040000fa
:0400a000f601000065
:020000040000fa
:0400a400f601000061
:020000040000fa
:0400a800f60100005d
:020000040000fa
:0400ac00f601000059
:020000040000fa
:0400b000f601000055
:020000040000fa
:0400b400f601000051
:020000040000fa
:0400b800f60100004d
:020000040000fa
:0400bc00f601000049
:020000040000fa
:0400c000f601000045
:020000040000fa
:0400c400f601000041
:020000040000fa
:0400c800f60100003d
:020000040000fa
:0400cc00f601000039
:020000040000fa
:0400d000f601000035
:020000040000fa
:0400d400f601000031
:020000040000fa
:0400d800f60100002d
:020000040000fa
:04010800f6010000fc
:020000040000fa
:04010c00f6010000f8
:020000040000fa
:04011000f6010000f4
:020000040000fa
:04011400f6010000f0
:020000040000fa
:04011800f6010000ec
:020000040000fa
:04011c00f6010000e8
:020000040000fa
:04012000f6010000e4
:020000040000fa
:04012400f6010000e0
:020000040000fa
:04012800f6010000dc
:020000040000fa
:04012c00f6010000d8
:020000040000fa
:04013000f6010000d4
:020000040000fa
:04013400f6010000d0
:020000040000fa
:04013800f6010000cc
:020000040000fa
:04013c00f6010000c8
:020000040000fa
:04014000f6010000c4
:020000040000fa
:04014400f6010000c0
:020000040000fa
:04014800f6010000bc
:020000040000fa
:04014c00f6010000b8
:020000040000fa
:04015000f6010000b4
:020000040000fa
:04015400f6010000b0
:020000040000fa
:04015800f6010000ac
:020000040000fa
:04015c00f6010000a8
:020000040000fa
:04016000f6010000a4
:020000040000fa
:04016400f6010000a0
:020000040000fa
:04016800f60100009c
:020000040000fa
:04016c00f601000098
:020000040000fa
:04017000f601000094
:020000040000fa
:04017400f601000090
:020000040000fa
:04017800f60100008c
:020000040000fa
:04017c00f601000088
:020000040000fa
:04018000f601000084
:020000040000fa
:04018400f601000080
:020000040000fa
:04018800c8010000aa
:020000040000fa
:04018c00f601000078
:020000040000fa
:04019000f601000074
:020000040000fa
:04019400f601000070
:020000040000fa
:04019800f60100006c
:020000040000fa
:04019c00f601000068
:020000040000fa
:0401a000f601000064
:020000040000fa
:0401a400f601000060
:020000040000fa
:0401a800f60100005c
:020000040000fa
:0401ac00f601000058
:020000040000fa
:0401b000f601000054
:020000040000fa
:0401b400f601000050
:020000040000fa
:0401b800f60100004c
:020000040000fa
:0401bc00f601000048
:020000040000fa
:0401c000f601000044
:020000040000fa
:0401c400f601000040
:020000040000fa
:0401c800f60100003c
:020000040000fa
:0401cc00f601000038
:020000040000fa
:0401d000f601000034
:020000040000fa
:0401d400f601000030
:020000040000fa
:0401d800f60100002c
:020000040000fa
:100200006f9420000eff20000e0188000000000007
:10021000000020000000e000020032000001200089
:100220002002880014000700720007000000e000b0
:1002300003003a00c0e02000010020000200370067
:100240000000200001002000810f7000010032003a
:1002500014000700000020000000e000020032004f
:1002600000000200000000009808020000000000ea
:100270000040da000000fe004440a90020012000f8
:100280000000e0000300320000002000a001880010
:100290004440a800000006008a1f78008b1f7800e9
:1002a0000000060091018800800478000000eb0047
:1002b0001a003700e284440032a0b4009905ba0065
:1002c000e284440032a0b4009906ba00e2844400fb
:1002d00032a0b4000006eb00476fde00fd07b2005d
:1002e000636ce10003003a00ebff07000000eb0045
:1002f0000a003700606ce10004003a00005deb008a
:100300008b05e900fdff3e00040037006168e10055
:10031000010032000086eb000b00070019c7ba008d
:100320001905ba000e04e00003003a000a00e000dc
:10033000e0ff3a0000000600fe07b2009e018800c0
:100340008a047800f5ff3700395dba008b05e900b3
:100350000c003200295dba008b05e900080032006c
:100360000c00e00003003a00e284440032a0b40034
:10037000f5ff370019ddba008b05e900faff3a00f6
:100380008904e800e184440032a0b40000000600c3
:100390003600f800809fbe00829fbe00849fbe0092
:1003a000869fbe003400f80000002000a0018800f5
:1003b0000200fa008700a900e0108000004f7800da
:1003c0009e40780000882000c20507000080fa00e7
:1003d0003400f9004f03be004f02be004f01be00c3
:1003e0004f00be003600f900004006000040da0071
:1003f0000000fe000000050003f0a200889fbe0080
:100400008a9fbe008c1f7800170107001e01330071
:100410006450e1004f0032006420e10052003200dd
:1004200003826c0007003b000905d0000306d000e2
:10043000820f54000c065d000200390002003200f9
:1004400089017800030678008582550004003d008c
:100450000003fd008103fd008502ea008b85420058
:10046000840f720002003b0060001000e080180062
:100470006011b8000005eb007a28e1000a0039009d
:1004800006007800c75ddd00f707b20087807500c1
:100490002d003700828171000a017800610560003b
:1004a0008180d1000080d3008502e900f9ff3b0084
:1004b000060440008784480002003b0060041400ea
:1004c000e0841c000988a300070032008a817100c3
:1004d00082817100610164008904d1000884d30025
:1004e0008b05e800170037000978a30013003a00d5
:1004f0000b00e000130034008b05e9000804440001
:1005000089844c000a4474000978a3000d003a0065
:100510000b00e000070034008b05e90008044400ec
:1005200089844c0001003a000b0020000978a300e8
:10053000f7ff32000001eb000200370082817100fa
:100540000a0178008d0007000cf0a70001f0a00060
:10055000d60037006420e10002003a00838f6c006f
:10056000d60033000801be000200be00cf003700f5
:10057000889fbe008a9fbe008c1f7800ba000700cb
:10058000c100330003866c006450e1002e0032008d
:100590006420e100330032006150e1002f0032009e
:1005a0006120e1003100320085855500eb07b00085
:1005b000090020000804200005003700080444005a
:1005c00089844c000a0031000603430087834b00f6
:1005d0000001530081815b00f8ff33000203be007d
:1005e0000800a0000804440089844c00f6ff39008c
:1005f000c639dd00830173000100320013002000c2
:100600008904d1000884d3000998a30005003200b2
:100610000800a7000300a0008904d1000884d300cb
:100620008b05e8008904d1000884d3000001eb00a9
:100630000281d2005100070001f0a1000cf0a700d8
:1006400001f0a000990037006420e1009b00320017
:100650000801be000200be00f7ff37006120e10084
:10066000960032006000b800f3ff37000000200061
:1006700001f82700f0ff37000001be006500070009
:100680000470a70003f0a1006509b1001600320054
:100690000d0035006828e10006003500f0ff2f004e
:1006a000f1ff27000300e00013003b0001002800d9
:1006b0000000050000004000818048008502e9003c
:1006c000fcff3a0008003700f88f420002003c00af
:1006d0008000eb00000005008100d1000080d30005
:1006e0008502e800fcff3a000300e00002003b0046
:1006f00060001000e0801800000006000001be004d
:10070000440007000470a70003f0a10003f8a30051
:1007100013003a006509b1001000320009003500ed
:100720006928e100020035000100280000000500f2
:1007300000004000818048008502e900fcff3a008b
:1007400000000600f88f4200050035008100d1004e
:100750000080d3008502e800fcff3a00000006009c
:100760008000eb00000005004f89de008201780068
:10077000890037006011b800970037008100200021
:10078000618055000b003d000b00200061fe2f0032
:100790000100e1001d0034008281710061016400ec
:1007a0008904d1000884d3000000e800faff3a0071
:1007b000710020006100640003007000020060000e
:1007c0000900320061044400e0844c000988a5005f
:1007d000050032008b05e8006808e10002003a00dd
:1007e0008904d1000884d300f20f20000258e100f0
:1007f00005003d00c75ddd00f907b2008980750086
:1008000008007800000006000bf827008b00780035
:1008100000000500c70ade00f107b200f50fb200c4
:1008200008003200e1cf4200020032000170a00057
:1008300024000500810f700001003200040805004b
:1008400044000500810f700002003a00140005000a
:100850008502e9000000400081c04800fcff3b0029
:100860000170a000240005000004be00e9ff07009d
:100870000003be000405be000200be00e5ff070045
:10088000844f7500000006000200be006450e100c5
:10089000050036006420e100020036000968a3006c
:1008a00001003a000800be000160a0004f06780079
:1008b0004f05be004f04be0000000600f0ff2f00f1
:1008c000f1ff2700f9ff3700889fbe008a9fbe0016
:1008d0008c1f7800e4ff0700ebff330003866c00f9
:1008e0006450e100240032006420e100270032005f
:1008f0006150e100220032006120e100210032005d
:100900008b854200eb07b1000134b800003ab80013
:100910000804420089844a00013ab8000030b80057
:100920008880400009014a000400330000004000b4
:1009300081804800020149008b05e900c909dd00fa
:10094000830170000100320013002000c814de0093
:100950004814dd004709de001200b200c808de00be
:100960000884700085ff070001f0a1000cf0a700cb
:1009700001f0a000cdff37006120e100cfff320081
:100980000801be000200be00f7ff37006150e10021
:10099000fcff3a00c9ff3700881f78000304780085
:1009a0000300e00007003d0060001000e080180038
:1009b00060011900e081190002003b0001f02d00e8
:1009c000030037000400070008f0a70001f0a000b2
:1009d0004f04780000000600889fbe008a9fbe007a
:1009e000008270000402710004827100260032004f
:1009f0000004be000200be006011b8006b092000b8
:100a0000950220000182cf000a0039000541b100a3
:100a10000082cf00070039000541b1000982cf00f4
:100a2000040039000541b1000882cf0001003900ff
:100a30000541b10005425200120032000a003b009d
:100a400082817100610164008100d1000080d300c7
:100a50008984d3000884d3008b05e8000442e800b1
:100a6000f7ff3a00070037000804440089844c006f
:100a700000004800818048008b05e9000442e9003d
:100a8000f9ff3a003dff07004f05be004f04be00ce
:100a9000000006000c003700b0417800b1cf5100d3
:100aa00006003200100020009542780094cf5200da
:100ab0000b0031000080eb00000006000304e000a2
:100ac000060032000201e90001027800800278008d
:100ad0000200e000f0ff3a00000005000000eb001b
:100ae00000000600ee874700889fbe008a9fbe0078
:100af0008c9fbe008e1f7800f0b79f000106780023
:100b00008205780000047800080578000a0478005f
:100b1000b84678000d00fb008e0007000000e000e2
:100b2000f9ff3a00d0c2b30080cf56000300320074
:100b300000c0e90080cf560002003a000a05e80034
:100b400001003700804678000b00e000050035000a
:100b5000e18f55000300320040022000808f5500d5
:100b6000060034006044b8000c00e000720032005f
:100b70007fb09700000e7800480037000b00e000bf
:100b80000e003200f08f55001a003a0000c3b30087
:100b90009a4f100017003a001a40900081c7b30026
:100ba000814f50000300320081c5b300814f5000d7
:100bb00010003a000a85e8000e003700ab00200064
:100bc00000c3b3009a4f10000a003a001a40900088
:100bd00081c7b300814f5000040032008b00200019
:100be00081c5b300814f500002003a000a85e80039
:100bf0000b0120000a007800000278000400780051
:100c000001c3b300b0cf1000fbff3200040778002f
:100c10006044b800b4b79f000d003700818f2000fa
:100c200081405000c1ef9f006159b9000800be002b
:100c3000770007004fea97000401fb00cf91de0028
:100c4000c8b79f00d9b79f000204400083844800c2
:100c50008e0278003e00fb0085bf9f004500070024
:100c60000b01780080007800808f20004e00070084
:100c70008fba97000000e000e8ff3a003fb297000b
:100c8000850f550007003a006044b8000c00e000f2
:100c900029003200ffb29700050e78006044b800ca
:100ca0002500370004825200d091200060c07d00f2
:100cb0000000fb00000252001700330011003a0050
:100cc0004fe997000200fb00cf80de0000005400d7
:100cd00081805c00800f5400818f5c000900390026
:100ce0006159b90085bf9f00390007008fba97008e
:100cf0004fb19700dfb19700820f5000838f5800eb
:100d00000500320020022000104a88000084eb0019
:100d10008084eb0005003700d0c2b30080cf5600be
:100d200002003a0060041400e0841c000c00e000a3
:100d300001003200050e78000800be004f07780061
:100d40004f06be004f05be004f04be00ef00b100cd
:100d5000000006006900e100040035006d00e100bc
:100d6000030034000002b100010032000000050061
:100d700010000500800078001104b1000300350068
:100d80009101b10001003c000050a00000000600ed
:100d9000204a80000000e000010032000000010055
:100da000209420000000060003003700b0cf1000a0
:100db000050032000201e900800178000200e00035
:100dc000faff3a000000050003007800000006006a
:100dd0006022b800060220000000d0008180d2000e
:100de0000482d2008582d2000000a00002025200dc
:100df00083825a00030031000202420083824a00cb
:100e00000000a1000603e900f3ff3a00000006001d
:100e1000020ab900001bb9000200b80081004200bc
:080e2000810043000000060000
:020000040000fa
:100e2800484c00005245000046000000484c0000b5
:100e38005341000054000000484c0000454e00009b
:040e48004100000065
:020000040000fa
:100e4c003200fa00201798003117980042179800ca
:100e5c00531798006417980075179800061f980090
:100e6c00c0c2b300604798000000eb004007980038
:100e7c00ce009000210798002e019000020f780000
:100e8c009e007800110798003e109000490307005f
:100e9c00400798000000eb001007980098003700fe
:100eac006e004700800078003e1090001d03070084
:100ebc00500798006e489000804078002e109000eb
:100ecc0085010700600798006e009000e10f50004c
:100edc0088003a002e1090000080e800520020009c
:100eec0041712800e8fe07000000e00036003a00df
:100efc000000eb00000f780008003700ae109000e7
:100f0c001e01780068004100e14078006f00470046
:100f1c001e004000014878001e0fe800ae10900043
:100f2c001e01780068004100e14078006e4090009e
:100f3c0080cf5000f1ff3a006f004700a200200064
:100f4c008000eb00e4fe0700800078004e1090005b
:100f5c00010878001e00e800200798000c003700fc
:100f6c002e0090001e0050000000e9002e11900091
:100f7c00ae009000e8804000e2c07800000047001e
:100f8c00115898002e0090000000e80020079800ef
:100f9c00ae1090002e009000680040006140780078
:100fac000004e000eeff3a0079004700a2002000a8
:100fbc008000eb00c8fe0700800078005e109000f7
:100fcc00010878004b0037002e1090000080e800dc
:100fdc0052002000a1712800abfe07000000e000c9
:100fec0036003a000000eb00000f780008003700d4
:100ffc00ae1090001e01780068004100e1407800be
:10100c006f0047001e004000014878001e0fe800ea
:10101c00ae1090001e01780068004100e14078009d
:10102c006e40900080cf5000f1ff3a006f004700f7
:10103c00a20020008000eb00a7fe070080007800d3
:10104c007e109000010878001e00e8002007980030
:10105c000c0037002e0090001e0050000000e9002c
:10106c002e119000ae009000e8804000e2c07800a5
:10107c0000004700115898002e0090000000e80076
:10108c0020079800ae1090002e00900068004000e1
:10109c00614078000004e000eeff3a007900470060
:1010ac00a20020008000eb008bfe0700800078007f
:1010bc006e109000010878000e0037002e10900082
:1010cc000080e80052002000017228006efe07002c
:1010dc000000e00007003a000e1890001040780065
:1010ec000004a2000080fb00804078000e189000e5
:1010fc00014878001e0090000000e80010079800de
:10110c009e0090004e009000808f500003003d0028
:10111c004e0090000000e00061ff3c000080fa00ef
:10112c00000006003200fa00008120006501070073
:10113c0071010700e5010700560207004106200077
:10114c00100020001c0007000000eb002007980096
:10115c002e009000300798003e0090001007980079
:10116c001e009000000f78000040eb00004f98002c
:10117c00813e200020002000bb000700e801470052
:10118c0066014700e40047000e80e8000303780086
:10119c008202780001027800800178000e0178004c
:1011ac00018820000081200025ff0700100020008e
:1011bc0031000700f1ff37000800fa002007980003
:1011cc00310798000e80e800000178008e0078004e
:1011dc003e009000410007002e009000e10f5000ef
:1011ec0003003200e20f50001100320020003700e3
:1011fc000021ef001e007800004078006340600082
:10120c000080fb00630060004400dd0022088000c9
:10121c00f1fc2f00810061000100700020088800a3
:10122c001e0090001008880005e1a800100037008f
:10123c000621ef001e00780000407800634060003b
:10124c000080fb00630060004400dd008208800029
:10125c00f1fc2f0081006100010070008008880003
:10126c001e0090006008880011e1a800000000003a
:10127c000080fa00000006000200fa00000f78005f
:10128c001e007800e10f500003003200e20f500006
:10129c00080032000f00370000000000200480001e
:1012ac00680060000000e000fcff32008460a900d0
:1012bc00080037000000000021048000000420001a
:1012cc00008060000000e000fbff320084c0a90039
:1012dc00000000000080fa00000006000a00fa007e
:1012ec00889fbe008a9fbe008c9fbe00200798007e
:1012fc0031079800420798002e009000cf80de0046
:10130c0016fd070062662600634e24006bfd070085
:10131c00d6fc0700008fbe00f0ff2f00010020005c
:10132c001e01be00800f5100818f590007003c0048
:10133c003e0090008000eb00010878009e007800d1
:10134c004e00900001087800420037001e00be00dd
:10135c00e00f5000e08f580002003d006700400095
:10136c00e08048004d09dd004306de000c067100ec
:10137c00c38ede000c8fbe00f0ff2f00010020009a
:10138c001e01be00800f5100818f590007003c00e8
:10139c003e00900011002000010878009e007800ab
:1013ac004e009000010878002a0037001e00be0095
:1013bc00e00f5000e08f580002003d006700400035
:1013cc00e08048004d09dd004305de000a05710090
:1013dc00c38dde000a8fbe00f0ff2f00010020003d
:1013ec001e01be00800f5100818f590007003c0088
:1013fc003e00900021002000010878009e0078003b
:10140c004e00900001087800120037001e00be004c
:10141c00e00f5000e08f580002003d0063004000d8
:10142c00e08048004e09dd004204de000804710033
:10143c00c28cde00088fbe003e0090003100200000
:10144c00010878009e0078004e009000010878009a
:10145c00000000004f06be004f05be004f04be004a
:10146c000080fa00000006000400fa00000f78006b
:10147c00110798009e0090001e0078004eff070098
:10148c001e007800e10f500003003200e20f500004
:10149c00080032000e00370000000000200480001d
:1014ac00680060000000e000fcff32008460a900ce
:1014bc00010037000000000021048000000420001f
:1014cc00008060000000e000fbff320084c0a90037
:1014dc000080fa00000006000400fa00000f7800fb
:1014ec00214798001e00780010007800e20f500091
:1014fc000f003200e30f500047003200e10f5000a4
:10150c006d003a00ae40900040c2b30080cf500056
:10151c0068003a001e0078002100200001087800c5
:10152c001e0078008000eb006130980062003700ec
:10153c00ae409000c0c2b30080cf50000d003a0006
:10154c001e00780031002000010878001e00780091
:10155c00603090009e007800008040008040eb00de
:10156c00214098001e0078008000eb00713098003c
:10157c00510037001e00780060309000e60f5000dc
:10158c0007003a001e0078001100200001087800c6
:10159c001e0078008000eb00613098004600370098
:1015ac00ae409000a0c2b30080cf50000e003a00b5
:1015bc001e00780011002000010878001e00780041
:1015cc00603090009e007800008040008040eb006e
:1015dc00214098001e0078008040eb0001489800e4
:1015ec0010002000350037001e007800603090009d
:1015fc009e00780000804000ae4090002140980092
:10160c001e007800603090008000e8001e0078001a
:10161c006130980028003700ae409000a0c2b300a3
:10162c0080cf50000b003a001e0078001100200003
:10163c00010878001e007800703090009e00780041
:10164c00008040008040eb00014898001000200012
:10165c001a0037001e007800f03090004006200081
:10166c00808f500007003a001e0078001100200007
:10167c00010878001e0078008000eb0071309800a3
:10168c000d0037001e007800703090009e0078002e
:10169c0000804000ae409000014898001e00780089
:1016ac00703090008000e8001e00780071309800c7
:1016bc0001003700000000000000eb000080fa0081
:1016cc00000006000200fa00000f78001e007800ef
:1016dc0011002000010878001e0078008000eb004b
:1016ec00613098001e0078008000eb00713098008b
:1016fc000080fa00000006000200fa00889fbe007d
:10170c00010e8000c0ff2f0000806000000e8800da
:10171c00c881a800c8a1a800010e800030ff2f00ce
:10172c0000806000000e880010002000000f780080
:10173c00604780007147800008fc07000004be0071
:10174c001e007800cf80de0004fc07000002be0003
:10175c0080478000914780000001be000400be005d
:10176c0056fc07000001be000800be007dfb070010
:10177c000200200003f823001cfb0700dcfb070021
:10178c0000007800200e8800c1e1a8004f04be00c4
:10179c000080fa00000006001400fa00889fbe00ca
:1017ac00400798005107980062079800730798004b
:1017bc00040f9800150f98008e08900000f421007b
:1017cc0000804000cf80de00e4fb07006e0190003b
:1017dc00fe01900039fc07000200200003002400e9
:1017ec0060fb070002002000a35f240033fc07000d
:1017fc00008fbe009e08900000f421000080400085
:10180c00cf80de00d5fb07006e019000fe0190003a
:10181c002afc0700020020000300240051fb0700f3
:10182c0002002000a35f240024fc0700200798007e
:10183c00310798001e00be000001be00ecfa070044
:10184c000004be00200e80008000eb00c6fb0700e9
:10185c000001be000800be0018fc07006e019000dd
:10186c00fe0190003ffb070080fb07008000780022
:10187c004e009000010878002e009000be009000f1
:10188c000001be00dafa07000004be00200e800042
:10189c008000eb00b4fb07000001be000800be0096
:1018ac0006fc07006e019000fe0190002dfb070066
:1018bc006efb0700800078005e0090000108780045
:1018cc004f04be000080fa00000006000000fa0081
:1018dc0022a2a8002342a900101180003000b300fe
:1018ec00101188001111800030fe2f000080600064
:1018fc008001b3001011880021e2a800008c2000a8
:10190c0004000700408d2000020007000080fa0050
:10191c00000006000400fa00100798000000eb001d
:10192c00000f78000000eb00000f78000500370076
:10193c001e0090001e00400001c2b3000148780058
:10194c001e0fe8001e007800ef0f5000f8ff340067
:10195c001e0090008000eb00110898000080fa0037
:10196c00000006000800fa001007980021079800f4
:10197c00320798000000eb00000f78000a003700d7
:10198c001e0078009e00900000804000be00900079
:10199c009e8040001e019000810041009140780023
:1019ac00014878001e0fe800ae0090003e00900049
:1019bc00008050009e0f5000f1ff3c000080fa00a8
:1019cc00000006000600fa00100798002107980096
:1019dc000000eb00000f78000000eb00000f780017
:1019ec000c00370000000000001180006200600055
:1019fc000000e000fcff3a001e0078009e00900002
:101a0c0000804000104078000000fb00201188008e
:101a1c001e0fe8001e0078009e0090000080400021
:101a2c00104078000004e000040032002e0090000a
:101a3c009e007800808f5000eaff35000080fa008d
:101a4c00000006000000fa000000000000118000f9
:101a5c00620060000000e000fcff3a00000820007b
:101a6c00201188000080fa00000006000000fa0037
:101a7c000000000000118000620060000000e00027
:101a8c00fcff3a00000c2000201188000080fa00b6
:101a9c00000006000000fa00be28ef00bc28ef0092
:101aac00b0002000f010880017e2a8001942a8002e
:101abc008f00a800813e2000200020006afe070055
:101acc000080fa00000006000400fa00000f780005
:101adc00214798001e007800701890009e00780036
:101aec002e419000827078001e00780070189000d3
:101afc008000e8001e007800711898001e00780025
:101b0c00f0189000b0032000808f500003003a00c2
:101b1c001e0078008000eb00711898000080fa001d
:101b2c00000006000400fa00000f7800110798006e
:101b3c008f00a9001e007800e01890001e007800ad
:101b4c0070189000808f500003003a008f00a8009e
:101b5c000000eb00150037001e00780060189000a4
:101b6c009e007800e14078001e009000014878004b
:101b7c001e007800601890008000e8001e007800bd
:101b8c00611898001e007800e0189000c003200037
:101b9c00808f500003003a001e0078008000eb009c
:101bac00611898008f00a800100020000080fa0037
:101bbc00000006000600fa00200798008f00a9001c
:101bcc002e009000f0189000010f78002e0090006d
:101bdc00e0189000110798008f00a8001e009000dc
:101bec009e007800808f5000030035001e0090008e
:101bfc001e001000030037001e0090001e00100095
:0c1c0c00c003b0000080fa0000000600d9
:020000040000fa
:101c180000080000e800000000000000e8080000dc
:101c2800100000000200000000807000000020008a
:101c38001c000000007a44006f1283003a00000084
:101c4800f80800004a0000000200000030313200ad
:101c58003334350036373800396162006364650013
:101c680066676800696a6b006c6d6e006f70710062
:101c7800727374007576770078797a000000000036
:101c8800211511000e0d0c000b0b0a000a090900a2
:101c980009090900080808000808080008070700db
:101ca80007070700070707000707070007070000df
:101cb80042090000040000000000000000000000cd
:020000040000fa
:0200000401f009
:04000000f4bf000049
:020000040000fa
:0200000401f009
:04000400ff7f00007a
:020000040000fa
:0200000401f009
:04000800ffff0000f6
:020000040000fa
:0200000401f009
:04001400ffff0000ea
:020000040000fa
:0200000401f009
:04001800ffff0000e6
:00000001FF
